{
  "address": "0xE4E7F8b1F09446Ad9395531E861e0b1467a82Eb3",
  "abi": [
    {
      "inputs": [
        {
          "internalType": "address",
          "name": "tokenAddress_",
          "type": "address"
        }
      ],
      "stateMutability": "nonpayable",
      "type": "constructor"
    },
    {
      "anonymous": false,
      "inputs": [
        {
          "indexed": false,
          "internalType": "uint256",
          "name": "amount",
          "type": "uint256"
        },
        {
          "indexed": true,
          "internalType": "address",
          "name": "destinationWallet",
          "type": "address"
        }
      ],
      "name": "CrossChainConversion",
      "type": "event"
    },
    {
      "inputs": [
        {
          "internalType": "uint256",
          "name": "amount_",
          "type": "uint256"
        },
        {
          "internalType": "address",
          "name": "destinationWallet_",
          "type": "address"
        }
      ],
      "name": "crossChainConvertERC20",
      "outputs": [],
      "stateMutability": "nonpayable",
      "type": "function"
    },
    {
      "inputs": [],
      "name": "tokenAddress",
      "outputs": [
        {
          "internalType": "address",
          "name": "",
          "type": "address"
        }
      ],
      "stateMutability": "view",
      "type": "function"
    }
  ],
  "transactionHash": "0x9ded5ab605e2b2915da5e17b35f9dc5a21bf49649e72828e67e2aaeeda2a791c",
  "args": [
    "0xae0609a062a4eaed49de28c5f6a193261e0150ea"
  ],
  "numDeployments": 1,
  "solcInputHash": "dd6803ecb117279ef1b06be77abc41e3",
  "bytecode": "0x608060405234801561001057600080fd5b5060405161027938038061027983398101604081905261002f91610054565b600080546001600160a01b0319166001600160a01b0392909216919091179055610082565b600060208284031215610065578081fd5b81516001600160a01b038116811461007b578182fd5b9392505050565b6101e8806100916000396000f3fe608060405234801561001057600080fd5b50600436106100365760003560e01c806330c405a81461003b5780639d76ea5814610050575b600080fd5b61004e610049366004610178565b61007f565b005b600054610063906001600160a01b031681565b6040516001600160a01b03909116815260200160405180910390f35b6000546040516323b872dd60e01b8152336004820152306024820152604481018490526001600160a01b03909116906323b872dd90606401602060405180830381600087803b1580156100d157600080fd5b505af11580156100e5573d6000803e3d6000fd5b505050506040513d601f19601f820116820180604052508101906101099190610151565b50806001600160a01b03167fc012dac6301cb45fbf121672b32199623e9381f4dbf7c0a646f2e4319c1fa23d8360405161014591815260200190565b60405180910390a25050565b600060208284031215610162578081fd5b81518015158114610171578182fd5b9392505050565b6000806040838503121561018a578081fd5b8235915060208301356001600160a01b03811681146101a7578182fd5b80915050925092905056fea26469706673582212209a61c6e652cfda7d12bef13f8e10a63ce69143c2230565ba0ed00dc6bf206ad664736f6c63430008020033",
  "devdoc": {
    "kind": "dev",
    "methods": {},
    "version": 1
  },
  "userdoc": {
    "kind": "user",
    "methods": {},
    "version": 1
  },
  "storageLayout": {
    "storage": [
      {
        "astId": 24,
        "contract": "contracts/ERC20Lock.sol:ERC20Lock",
        "label": "tokenAddress",
        "offset": 0,
        "slot": "0",
        "type": "t_address"
      }
    ],
    "types": {
      "t_address": {
        "encoding": "inplace",
        "label": "address",
        "numberOfBytes": "20"
      }
    }
  }
}